{
  "_format": "hh-sol-artifact-1",
  "contractName": "FunToken",
  "sourceName": "contracts/FunToken.sol",
  "abi": [
    {
      "inputs": [
        {
          "internalType": "uint256",
          "name": "_totalSupply",
          "type": "uint256"
        }
      ],
      "stateMutability": "nonpayable",
      "type": "constructor"
    },
    {
      "anonymous": false,
      "inputs": [
        {
          "indexed": true,
          "internalType": "address",
          "name": "_owner",
          "type": "address"
        },
        {
          "indexed": true,
          "internalType": "address",
          "name": "_spender",
          "type": "address"
        },
        {
          "indexed": false,
          "internalType": "uint256",
          "name": "_value",
          "type": "uint256"
        }
      ],
      "name": "Approval",
      "type": "event"
    },
    {
      "anonymous": false,
      "inputs": [
        {
          "indexed": true,
          "internalType": "address",
          "name": "from",
          "type": "address"
        },
        {
          "indexed": true,
          "internalType": "address",
          "name": "to",
          "type": "address"
        },
        {
          "indexed": false,
          "internalType": "uint256",
          "name": "value",
          "type": "uint256"
        }
      ],
      "name": "Transfer",
      "type": "event"
    },
    {
      "inputs": [
        {
          "internalType": "address",
          "name": "",
          "type": "address"
        },
        {
          "internalType": "address",
          "name": "",
          "type": "address"
        }
      ],
      "name": "allowance",
      "outputs": [
        {
          "internalType": "uint256",
          "name": "",
          "type": "uint256"
        }
      ],
      "stateMutability": "view",
      "type": "function"
    },
    {
      "inputs": [
        {
          "internalType": "address",
          "name": "_spender",
          "type": "address"
        },
        {
          "internalType": "uint256",
          "name": "_value",
          "type": "uint256"
        }
      ],
      "name": "approve",
      "outputs": [
        {
          "internalType": "bool",
          "name": "success",
          "type": "bool"
        }
      ],
      "stateMutability": "nonpayable",
      "type": "function"
    },
    {
      "inputs": [
        {
          "internalType": "address",
          "name": "",
          "type": "address"
        }
      ],
      "name": "balanceOf",
      "outputs": [
        {
          "internalType": "uint256",
          "name": "",
          "type": "uint256"
        }
      ],
      "stateMutability": "view",
      "type": "function"
    },
    {
      "inputs": [],
      "name": "getTokenHolder",
      "outputs": [
        {
          "internalType": "address[]",
          "name": "",
          "type": "address[]"
        }
      ],
      "stateMutability": "view",
      "type": "function"
    },
    {
      "inputs": [
        {
          "internalType": "address",
          "name": "_address",
          "type": "address"
        }
      ],
      "name": "getTokenHolderData",
      "outputs": [
        {
          "internalType": "uint256",
          "name": "",
          "type": "uint256"
        },
        {
          "internalType": "address",
          "name": "",
          "type": "address"
        },
        {
          "internalType": "address",
          "name": "",
          "type": "address"
        },
        {
          "internalType": "uint256",
          "name": "",
          "type": "uint256"
        },
        {
          "internalType": "bool",
          "name": "",
          "type": "bool"
        }
      ],
      "stateMutability": "view",
      "type": "function"
    },
    {
      "inputs": [
        {
          "internalType": "uint256",
          "name": "",
          "type": "uint256"
        }
      ],
      "name": "holderToken",
      "outputs": [
        {
          "internalType": "address",
          "name": "",
          "type": "address"
        }
      ],
      "stateMutability": "view",
      "type": "function"
    },
    {
      "inputs": [],
      "name": "name",
      "outputs": [
        {
          "internalType": "string",
          "name": "",
          "type": "string"
        }
      ],
      "stateMutability": "view",
      "type": "function"
    },
    {
      "inputs": [],
      "name": "ownerOfContract",
      "outputs": [
        {
          "internalType": "address",
          "name": "",
          "type": "address"
        }
      ],
      "stateMutability": "view",
      "type": "function"
    },
    {
      "inputs": [],
      "name": "standard",
      "outputs": [
        {
          "internalType": "string",
          "name": "",
          "type": "string"
        }
      ],
      "stateMutability": "view",
      "type": "function"
    },
    {
      "inputs": [],
      "name": "symbol",
      "outputs": [
        {
          "internalType": "string",
          "name": "",
          "type": "string"
        }
      ],
      "stateMutability": "view",
      "type": "function"
    },
    {
      "inputs": [
        {
          "internalType": "address",
          "name": "",
          "type": "address"
        }
      ],
      "name": "tokenHlolderInfos",
      "outputs": [
        {
          "internalType": "uint256",
          "name": "_tokenId",
          "type": "uint256"
        },
        {
          "internalType": "address",
          "name": "_from",
          "type": "address"
        },
        {
          "internalType": "address",
          "name": "_to",
          "type": "address"
        },
        {
          "internalType": "uint256",
          "name": "_totalToken",
          "type": "uint256"
        },
        {
          "internalType": "bool",
          "name": "_tokenHolder",
          "type": "bool"
        }
      ],
      "stateMutability": "view",
      "type": "function"
    },
    {
      "inputs": [],
      "name": "totalSupply",
      "outputs": [
        {
          "internalType": "uint256",
          "name": "",
          "type": "uint256"
        }
      ],
      "stateMutability": "view",
      "type": "function"
    },
    {
      "inputs": [
        {
          "internalType": "address",
          "name": "_to",
          "type": "address"
        },
        {
          "internalType": "uint256",
          "name": "_value",
          "type": "uint256"
        }
      ],
      "name": "transfer",
      "outputs": [
        {
          "internalType": "bool",
          "name": "success",
          "type": "bool"
        }
      ],
      "stateMutability": "nonpayable",
      "type": "function"
    },
    {
      "inputs": [
        {
          "internalType": "address",
          "name": "_from",
          "type": "address"
        },
        {
          "internalType": "address",
          "name": "_to",
          "type": "address"
        },
        {
          "internalType": "uint256",
          "name": "_value",
          "type": "uint256"
        }
      ],
      "name": "transferFrom",
      "outputs": [
        {
          "internalType": "bool",
          "name": "success",
          "type": "bool"
        }
      ],
      "stateMutability": "nonpayable",
      "type": "function"
    },
    {
      "inputs": [],
      "name": "userId",
      "outputs": [
        {
          "internalType": "uint256",
          "name": "",
          "type": "uint256"
        }
      ],
      "stateMutability": "view",
      "type": "function"
    }
  ],
  "bytecode": "0x60806040526040518060400160405280600881526020017f46756e546f6b656e000000000000000000000000000000000000000000000000815250600090816200004a919062000419565b506040518060400160405280600381526020017f46554e00000000000000000000000000000000000000000000000000000000008152506001908162000091919062000419565b506040518060400160405280600e81526020017f46756e546f6b656e20762e302e3100000000000000000000000000000000000081525060029081620000d8919062000419565b50348015620000e657600080fd5b5060405162001a7b38038062001a7b83398181016040528101906200010c919062000536565b33600560006101000a81548173ffffffffffffffffffffffffffffffffffffffff021916908373ffffffffffffffffffffffffffffffffffffffff16021790555080600960003373ffffffffffffffffffffffffffffffffffffffff1673ffffffffffffffffffffffffffffffffffffffff16815260200190815260200160002081905550806003819055505062000568565b600081519050919050565b7f4e487b7100000000000000000000000000000000000000000000000000000000600052604160045260246000fd5b7f4e487b7100000000000000000000000000000000000000000000000000000000600052602260045260246000fd5b600060028204905060018216806200022157607f821691505b602082108103620002375762000236620001d9565b5b50919050565b60008190508160005260206000209050919050565b60006020601f8301049050919050565b600082821b905092915050565b600060088302620002a17fffffffffffffffffffffffffffffffffffffffffffffffffffffffffffffffff8262000262565b620002ad868362000262565b95508019841693508086168417925050509392505050565b6000819050919050565b6000819050919050565b6000620002fa620002f4620002ee84620002c5565b620002cf565b620002c5565b9050919050565b6000819050919050565b6200031683620002d9565b6200032e620003258262000301565b8484546200026f565b825550505050565b600090565b6200034562000336565b620003528184846200030b565b505050565b5b818110156200037a576200036e6000826200033b565b60018101905062000358565b5050565b601f821115620003c95762000393816200023d565b6200039e8462000252565b81016020851015620003ae578190505b620003c6620003bd8562000252565b83018262000357565b50505b505050565b600082821c905092915050565b6000620003ee60001984600802620003ce565b1980831691505092915050565b6000620004098383620003db565b9150826002028217905092915050565b62000424826200019f565b67ffffffffffffffff81111562000440576200043f620001aa565b5b6200044c825462000208565b620004598282856200037e565b600060209050601f8311600181146200049157600084156200047c578287015190505b620004888582620003fb565b865550620004f8565b601f198416620004a1866200023d565b60005b82811015620004cb57848901518255600182019150602085019450602081019050620004a4565b86831015620004eb5784890151620004e7601f891682620003db565b8355505b6001600288020188555050505b505050505050565b600080fd5b6200051081620002c5565b81146200051c57600080fd5b50565b600081519050620005308162000505565b92915050565b6000602082840312156200054f576200054e62000500565b5b60006200055f848285016200051f565b91505092915050565b61150380620005786000396000f3fe608060405234801561001057600080fd5b50600436106100f55760003560e01c80635a3b7e421161009757806395d89b411161006657806395d89b41146102b8578063a9059cbb146102d6578063ba8e355714610306578063dd62ed3e14610324576100f5565b80635a3b7e421461020657806370a0823114610224578063760b06c51461025457806382b6826314610284576100f5565b806323173980116100d3578063231739801461016657806323b872dd1461019a578063468229ae146101ca57806358975919146101e8576100f5565b806306fdde03146100fa578063095ea7b31461011857806318160ddd14610148575b600080fd5b610102610354565b60405161010f9190610f57565b60405180910390f35b610132600480360381019061012d9190611012565b6103e2565b60405161013f919061106d565b60405180910390f35b6101506104d4565b60405161015d9190611097565b60405180910390f35b610180600480360381019061017b91906110b2565b6104da565b6040516101919594939291906110ee565b60405180910390f35b6101b460048036038101906101af9190611141565b61055d565b6040516101c1919061106d565b60405180910390f35b6101d261070e565b6040516101df9190611194565b60405180910390f35b6101f0610734565b6040516101fd9190611097565b60405180910390f35b61020e61073a565b60405161021b9190610f57565b60405180910390f35b61023e600480360381019061023991906110b2565b6107c8565b60405161024b9190611097565b60405180910390f35b61026e600480360381019061026991906111af565b6107e0565b60405161027b9190611194565b60405180910390f35b61029e600480360381019061029991906110b2565b61081f565b6040516102af9594939291906110ee565b60405180910390f35b6102c06109d6565b6040516102cd9190610f57565b60405180910390f35b6102f060048036038101906102eb9190611012565b610a64565b6040516102fd919061106d565b60405180910390f35b61030e610e14565b60405161031b919061129a565b60405180910390f35b61033e600480360381019061033991906112bc565b610ea2565b60405161034b9190611097565b60405180910390f35b600080546103619061132b565b80601f016020809104026020016040519081016040528092919081815260200182805461038d9061132b565b80156103da5780601f106103af576101008083540402835291602001916103da565b820191906000526020600020905b8154815290600101906020018083116103bd57829003601f168201915b505050505081565b600081600860003373ffffffffffffffffffffffffffffffffffffffff1673ffffffffffffffffffffffffffffffffffffffff16815260200190815260200160002060008573ffffffffffffffffffffffffffffffffffffffff1673ffffffffffffffffffffffffffffffffffffffff168152602001908152602001600020819055508273ffffffffffffffffffffffffffffffffffffffff163373ffffffffffffffffffffffffffffffffffffffff167f8c5be1e5ebec7d5bd14f71427d1e84f3dd0314c0f7b2291e5b200ac8c7c3b925846040516104c29190611097565b60405180910390a36001905092915050565b60035481565b60076020528060005260406000206000915090508060000154908060010160009054906101000a900473ffffffffffffffffffffffffffffffffffffffff16908060020160009054906101000a900473ffffffffffffffffffffffffffffffffffffffff16908060030154908060040160009054906101000a900460ff16905085565b600081600960008673ffffffffffffffffffffffffffffffffffffffff1673ffffffffffffffffffffffffffffffffffffffff16815260200190815260200160002060008282546105ae919061138b565b9250508190555081600960008573ffffffffffffffffffffffffffffffffffffffff1673ffffffffffffffffffffffffffffffffffffffff168152602001908152602001600020600082825461060491906113bf565b9250508190555081600860008673ffffffffffffffffffffffffffffffffffffffff1673ffffffffffffffffffffffffffffffffffffffff16815260200190815260200160002060003373ffffffffffffffffffffffffffffffffffffffff1673ffffffffffffffffffffffffffffffffffffffff1681526020019081526020016000206000828254610697919061138b565b925050819055508273ffffffffffffffffffffffffffffffffffffffff168473ffffffffffffffffffffffffffffffffffffffff167fddf252ad1be2c89b69c2b068fc378daa952ba7f163c4a11628f55a4df523b3ef846040516106fb9190611097565b60405180910390a3600190509392505050565b600560009054906101000a900473ffffffffffffffffffffffffffffffffffffffff1681565b60045481565b600280546107479061132b565b80601f01602080910402602001604051908101604052809291908181526020018280546107739061132b565b80156107c05780601f10610795576101008083540402835291602001916107c0565b820191906000526020600020905b8154815290600101906020018083116107a357829003601f168201915b505050505081565b60096020528060005260406000206000915090505481565b600681815481106107f057600080fd5b906000526020600020016000915054906101000a900473ffffffffffffffffffffffffffffffffffffffff1681565b6000806000806000600760008773ffffffffffffffffffffffffffffffffffffffff1673ffffffffffffffffffffffffffffffffffffffff16815260200190815260200160002060000154600760008873ffffffffffffffffffffffffffffffffffffffff1673ffffffffffffffffffffffffffffffffffffffff16815260200190815260200160002060020160009054906101000a900473ffffffffffffffffffffffffffffffffffffffff16600760008973ffffffffffffffffffffffffffffffffffffffff1673ffffffffffffffffffffffffffffffffffffffff16815260200190815260200160002060010160009054906101000a900473ffffffffffffffffffffffffffffffffffffffff16600760008a73ffffffffffffffffffffffffffffffffffffffff1673ffffffffffffffffffffffffffffffffffffffff16815260200190815260200160002060030154600760008b73ffffffffffffffffffffffffffffffffffffffff1673ffffffffffffffffffffffffffffffffffffffff16815260200190815260200160002060040160009054906101000a900460ff169450945094509450945091939590929450565b600180546109e39061132b565b80601f0160208091040260200160405190810160405280929190818152602001828054610a0f9061132b565b8015610a5c5780601f10610a3157610100808354040283529160200191610a5c565b820191906000526020600020905b815481529060010190602001808311610a3f57829003601f168201915b505050505081565b600081600960003373ffffffffffffffffffffffffffffffffffffffff1673ffffffffffffffffffffffffffffffffffffffff168152602001908152602001600020541015610ae8576040517f08c379a0000000000000000000000000000000000000000000000000000000008152600401610adf90611465565b60405180910390fd5b81600960003373ffffffffffffffffffffffffffffffffffffffff1673ffffffffffffffffffffffffffffffffffffffff1681526020019081526020016000206000828254610b37919061138b565b9250508190555081600960008573ffffffffffffffffffffffffffffffffffffffff1673ffffffffffffffffffffffffffffffffffffffff1681526020019081526020016000206000828254610b8d91906113bf565b925050819055506000600760008573ffffffffffffffffffffffffffffffffffffffff1673ffffffffffffffffffffffffffffffffffffffff1681526020019081526020016000209050838160020160006101000a81548173ffffffffffffffffffffffffffffffffffffffff021916908373ffffffffffffffffffffffffffffffffffffffff160217905550338160010160006101000a81548173ffffffffffffffffffffffffffffffffffffffff021916908373ffffffffffffffffffffffffffffffffffffffff16021790555082816003016000828254610c7191906113bf565b9250508190555060018160040160006101000a81548160ff0219169083151502179055506000600760008673ffffffffffffffffffffffffffffffffffffffff1673ffffffffffffffffffffffffffffffffffffffff1681526020019081526020016000206000015403610da45760046000815480929190610cf290611485565b9190505550600454600760008673ffffffffffffffffffffffffffffffffffffffff1673ffffffffffffffffffffffffffffffffffffffff168152602001908152602001600020600001819055506006849080600181540180825580915050600190039060005260206000200160009091909190916101000a81548173ffffffffffffffffffffffffffffffffffffffff021916908373ffffffffffffffffffffffffffffffffffffffff1602179055505b8373ffffffffffffffffffffffffffffffffffffffff163373ffffffffffffffffffffffffffffffffffffffff167fddf252ad1be2c89b69c2b068fc378daa952ba7f163c4a11628f55a4df523b3ef85604051610e019190611097565b60405180910390a3600191505092915050565b60606006805480602002602001604051908101604052809291908181526020018280548015610e9857602002820191906000526020600020905b8160009054906101000a900473ffffffffffffffffffffffffffffffffffffffff1673ffffffffffffffffffffffffffffffffffffffff1681526020019060010190808311610e4e575b5050505050905090565b6008602052816000526040600020602052806000526040600020600091509150505481565b600081519050919050565b600082825260208201905092915050565b60005b83811015610f01578082015181840152602081019050610ee6565b60008484015250505050565b6000601f19601f8301169050919050565b6000610f2982610ec7565b610f338185610ed2565b9350610f43818560208601610ee3565b610f4c81610f0d565b840191505092915050565b60006020820190508181036000830152610f718184610f1e565b905092915050565b600080fd5b600073ffffffffffffffffffffffffffffffffffffffff82169050919050565b6000610fa982610f7e565b9050919050565b610fb981610f9e565b8114610fc457600080fd5b50565b600081359050610fd681610fb0565b92915050565b6000819050919050565b610fef81610fdc565b8114610ffa57600080fd5b50565b60008135905061100c81610fe6565b92915050565b6000806040838503121561102957611028610f79565b5b600061103785828601610fc7565b925050602061104885828601610ffd565b9150509250929050565b60008115159050919050565b61106781611052565b82525050565b6000602082019050611082600083018461105e565b92915050565b61109181610fdc565b82525050565b60006020820190506110ac6000830184611088565b92915050565b6000602082840312156110c8576110c7610f79565b5b60006110d684828501610fc7565b91505092915050565b6110e881610f9e565b82525050565b600060a0820190506111036000830188611088565b61111060208301876110df565b61111d60408301866110df565b61112a6060830185611088565b611137608083018461105e565b9695505050505050565b60008060006060848603121561115a57611159610f79565b5b600061116886828701610fc7565b935050602061117986828701610fc7565b925050604061118a86828701610ffd565b9150509250925092565b60006020820190506111a960008301846110df565b92915050565b6000602082840312156111c5576111c4610f79565b5b60006111d384828501610ffd565b91505092915050565b600081519050919050565b600082825260208201905092915050565b6000819050602082019050919050565b61121181610f9e565b82525050565b60006112238383611208565b60208301905092915050565b6000602082019050919050565b6000611247826111dc565b61125181856111e7565b935061125c836111f8565b8060005b8381101561128d5781516112748882611217565b975061127f8361122f565b925050600181019050611260565b5085935050505092915050565b600060208201905081810360008301526112b4818461123c565b905092915050565b600080604083850312156112d3576112d2610f79565b5b60006112e185828601610fc7565b92505060206112f285828601610fc7565b9150509250929050565b7f4e487b7100000000000000000000000000000000000000000000000000000000600052602260045260246000fd5b6000600282049050600182168061134357607f821691505b602082108103611356576113556112fc565b5b50919050565b7f4e487b7100000000000000000000000000000000000000000000000000000000600052601160045260246000fd5b600061139682610fdc565b91506113a183610fdc565b92508282039050818111156113b9576113b861135c565b5b92915050565b60006113ca82610fdc565b91506113d583610fdc565b92508282019050808211156113ed576113ec61135c565b5b92915050565b7f74616e736665722076616c75652073686f756c64206265206c6573732074686160008201527f6e206d61696e2062616c616e6365000000000000000000000000000000000000602082015250565b600061144f602e83610ed2565b915061145a826113f3565b604082019050919050565b6000602082019050818103600083015261147e81611442565b9050919050565b600061149082610fdc565b91507fffffffffffffffffffffffffffffffffffffffffffffffffffffffffffffffff82036114c2576114c161135c565b5b60018201905091905056fea264697066735822122059321f6f1fc8419050c86ba01dce5a87cd5649d6338e418ddfc0016a908a572864736f6c63430008110033",
  "linkReferences": {},
  "deployedLinkReferences": {}
}